{
  "contractName": "MintableNFTCollection",
  "abi": [
    {
      "inputs": [],
      "stateMutability": "nonpayable",
      "type": "constructor"
    },
    {
      "anonymous": false,
      "inputs": [
        {
          "indexed": true,
          "internalType": "address",
          "name": "owner",
          "type": "address"
        },
        {
          "indexed": true,
          "internalType": "address",
          "name": "approved",
          "type": "address"
        },
        {
          "indexed": true,
          "internalType": "uint256",
          "name": "tokenId",
          "type": "uint256"
        }
      ],
      "name": "Approval",
      "type": "event"
    },
    {
      "anonymous": false,
      "inputs": [
        {
          "indexed": true,
          "internalType": "address",
          "name": "owner",
          "type": "address"
        },
        {
          "indexed": true,
          "internalType": "address",
          "name": "operator",
          "type": "address"
        },
        {
          "indexed": false,
          "internalType": "bool",
          "name": "approved",
          "type": "bool"
        }
      ],
      "name": "ApprovalForAll",
      "type": "event"
    },
    {
      "anonymous": false,
      "inputs": [
        {
          "indexed": true,
          "internalType": "address",
          "name": "previousOwner",
          "type": "address"
        },
        {
          "indexed": true,
          "internalType": "address",
          "name": "newOwner",
          "type": "address"
        }
      ],
      "name": "OwnershipTransferred",
      "type": "event"
    },
    {
      "anonymous": false,
      "inputs": [
        {
          "indexed": true,
          "internalType": "address",
          "name": "from",
          "type": "address"
        },
        {
          "indexed": true,
          "internalType": "address",
          "name": "to",
          "type": "address"
        },
        {
          "indexed": true,
          "internalType": "uint256",
          "name": "tokenId",
          "type": "uint256"
        }
      ],
      "name": "Transfer",
      "type": "event"
    },
    {
      "inputs": [],
      "name": "MAX_NFT_SUPPLY",
      "outputs": [
        {
          "internalType": "uint256",
          "name": "",
          "type": "uint256"
        }
      ],
      "stateMutability": "view",
      "type": "function",
      "constant": true
    },
    {
      "inputs": [
        {
          "internalType": "address",
          "name": "to",
          "type": "address"
        },
        {
          "internalType": "uint256",
          "name": "tokenId",
          "type": "uint256"
        }
      ],
      "name": "approve",
      "outputs": [],
      "stateMutability": "nonpayable",
      "type": "function"
    },
    {
      "inputs": [
        {
          "internalType": "address",
          "name": "owner",
          "type": "address"
        }
      ],
      "name": "balanceOf",
      "outputs": [
        {
          "internalType": "uint256",
          "name": "",
          "type": "uint256"
        }
      ],
      "stateMutability": "view",
      "type": "function",
      "constant": true
    },
    {
      "inputs": [
        {
          "internalType": "uint256",
          "name": "tokenId",
          "type": "uint256"
        }
      ],
      "name": "getApproved",
      "outputs": [
        {
          "internalType": "address",
          "name": "",
          "type": "address"
        }
      ],
      "stateMutability": "view",
      "type": "function",
      "constant": true
    },
    {
      "inputs": [
        {
          "internalType": "address",
          "name": "owner",
          "type": "address"
        },
        {
          "internalType": "address",
          "name": "operator",
          "type": "address"
        }
      ],
      "name": "isApprovedForAll",
      "outputs": [
        {
          "internalType": "bool",
          "name": "",
          "type": "bool"
        }
      ],
      "stateMutability": "view",
      "type": "function",
      "constant": true
    },
    {
      "inputs": [],
      "name": "name",
      "outputs": [
        {
          "internalType": "string",
          "name": "",
          "type": "string"
        }
      ],
      "stateMutability": "view",
      "type": "function",
      "constant": true
    },
    {
      "inputs": [],
      "name": "owner",
      "outputs": [
        {
          "internalType": "address",
          "name": "",
          "type": "address"
        }
      ],
      "stateMutability": "view",
      "type": "function",
      "constant": true
    },
    {
      "inputs": [
        {
          "internalType": "uint256",
          "name": "tokenId",
          "type": "uint256"
        }
      ],
      "name": "ownerOf",
      "outputs": [
        {
          "internalType": "address",
          "name": "",
          "type": "address"
        }
      ],
      "stateMutability": "view",
      "type": "function",
      "constant": true
    },
    {
      "inputs": [],
      "name": "renounceOwnership",
      "outputs": [],
      "stateMutability": "nonpayable",
      "type": "function"
    },
    {
      "inputs": [
        {
          "internalType": "address",
          "name": "from",
          "type": "address"
        },
        {
          "internalType": "address",
          "name": "to",
          "type": "address"
        },
        {
          "internalType": "uint256",
          "name": "tokenId",
          "type": "uint256"
        }
      ],
      "name": "safeTransferFrom",
      "outputs": [],
      "stateMutability": "nonpayable",
      "type": "function"
    },
    {
      "inputs": [
        {
          "internalType": "address",
          "name": "from",
          "type": "address"
        },
        {
          "internalType": "address",
          "name": "to",
          "type": "address"
        },
        {
          "internalType": "uint256",
          "name": "tokenId",
          "type": "uint256"
        },
        {
          "internalType": "bytes",
          "name": "data",
          "type": "bytes"
        }
      ],
      "name": "safeTransferFrom",
      "outputs": [],
      "stateMutability": "nonpayable",
      "type": "function"
    },
    {
      "inputs": [
        {
          "internalType": "address",
          "name": "operator",
          "type": "address"
        },
        {
          "internalType": "bool",
          "name": "approved",
          "type": "bool"
        }
      ],
      "name": "setApprovalForAll",
      "outputs": [],
      "stateMutability": "nonpayable",
      "type": "function"
    },
    {
      "inputs": [
        {
          "internalType": "bytes4",
          "name": "interfaceId",
          "type": "bytes4"
        }
      ],
      "name": "supportsInterface",
      "outputs": [
        {
          "internalType": "bool",
          "name": "",
          "type": "bool"
        }
      ],
      "stateMutability": "view",
      "type": "function",
      "constant": true
    },
    {
      "inputs": [],
      "name": "symbol",
      "outputs": [
        {
          "internalType": "string",
          "name": "",
          "type": "string"
        }
      ],
      "stateMutability": "view",
      "type": "function",
      "constant": true
    },
    {
      "inputs": [
        {
          "internalType": "uint256",
          "name": "index",
          "type": "uint256"
        }
      ],
      "name": "tokenByIndex",
      "outputs": [
        {
          "internalType": "uint256",
          "name": "",
          "type": "uint256"
        }
      ],
      "stateMutability": "view",
      "type": "function",
      "constant": true
    },
    {
      "inputs": [
        {
          "internalType": "address",
          "name": "owner",
          "type": "address"
        },
        {
          "internalType": "uint256",
          "name": "index",
          "type": "uint256"
        }
      ],
      "name": "tokenOfOwnerByIndex",
      "outputs": [
        {
          "internalType": "uint256",
          "name": "",
          "type": "uint256"
        }
      ],
      "stateMutability": "view",
      "type": "function",
      "constant": true
    },
    {
      "inputs": [
        {
          "internalType": "uint256",
          "name": "tokenId",
          "type": "uint256"
        }
      ],
      "name": "tokenURI",
      "outputs": [
        {
          "internalType": "string",
          "name": "",
          "type": "string"
        }
      ],
      "stateMutability": "view",
      "type": "function",
      "constant": true
    },
    {
      "inputs": [],
      "name": "totalSupply",
      "outputs": [
        {
          "internalType": "uint256",
          "name": "",
          "type": "uint256"
        }
      ],
      "stateMutability": "view",
      "type": "function",
      "constant": true
    },
    {
      "inputs": [
        {
          "internalType": "address",
          "name": "from",
          "type": "address"
        },
        {
          "internalType": "address",
          "name": "to",
          "type": "address"
        },
        {
          "internalType": "uint256",
          "name": "tokenId",
          "type": "uint256"
        }
      ],
      "name": "transferFrom",
      "outputs": [],
      "stateMutability": "nonpayable",
      "type": "function"
    },
    {
      "inputs": [
        {
          "internalType": "address",
          "name": "newOwner",
          "type": "address"
        }
      ],
      "name": "transferOwnership",
      "outputs": [],
      "stateMutability": "nonpayable",
      "type": "function"
    },
    {
      "inputs": [],
      "name": "mintNFT",
      "outputs": [],
      "stateMutability": "payable",
      "type": "function",
      "payable": true
    },
    {
      "inputs": [],
      "name": "withdraw",
      "outputs": [],
      "stateMutability": "nonpayable",
      "type": "function"
    }
  ],
  "bytecode": "0x60806040526000600b553480156200001657600080fd5b50604080518082018252601781527f4d696e7461626c65204e465420436f6c6c656374696f6e0000000000000000006020808301918252835180850190945260058452644d4e46544360d81b908401528151919291620000799160009162000108565b5080516200008f90600190602084019062000108565b505050620000ac620000a6620000b260201b60201c565b620000b6565b620001eb565b3390565b600a80546001600160a01b038381166001600160a01b0319831681179093556040519116919082907f8be0079c531659141344cd1fd0a4f28419497f9722a3daafe3b4186f6b6457e090600090a35050565b8280546200011690620001ae565b90600052602060002090601f0160209004810192826200013a576000855562000185565b82601f106200015557805160ff191683800117855562000185565b8280016001018555821562000185579182015b828111156200018557825182559160200191906001019062000168565b506200019392915062000197565b5090565b5b8082111562000193576000815560010162000198565b600281046001821680620001c357607f821691505b60208210811415620001e557634e487b7160e01b600052602260045260246000fd5b50919050565b611c7b80620001fb6000396000f3fe6080604052600436106101355760003560e01c80636352211e116100ab578063a22cb4651161006f578063a22cb4651461031f578063b5077f441461033f578063b88d4fde14610354578063c87b56dd14610374578063e985e9c514610394578063f2fde38b146103b457610135565b80636352211e146102a057806370a08231146102c0578063715018a6146102e05780638da5cb5b146102f557806395d89b411461030a57610135565b806318160ddd116100fd57806318160ddd146101e957806323b872dd1461020b5780632f745c591461022b5780633ccfd60b1461024b57806342842e0e146102605780634f6ccce71461028057610135565b806301ffc9a71461013a57806306fdde0314610170578063081812fc14610192578063095ea7b3146101bf57806314f710fe146101e1575b600080fd5b34801561014657600080fd5b5061015a610155366004611589565b6103d4565b6040516101679190611685565b60405180910390f35b34801561017c57600080fd5b50610185610401565b6040516101679190611690565b34801561019e57600080fd5b506101b26101ad3660046115c1565b610493565b6040516101679190611634565b3480156101cb57600080fd5b506101df6101da366004611560565b6104ba565b005b6101df61055b565b3480156101f557600080fd5b506101fe6105c6565b6040516101679190611b61565b34801561021757600080fd5b506101df610226366004611416565b6105cc565b34801561023757600080fd5b506101fe610246366004611560565b610604565b34801561025757600080fd5b506101df610656565b34801561026c57600080fd5b506101df61027b366004611416565b610691565b34801561028c57600080fd5b506101fe61029b3660046115c1565b6106ac565b3480156102ac57600080fd5b506101b26102bb3660046115c1565b610707565b3480156102cc57600080fd5b506101fe6102db3660046113ca565b61073b565b3480156102ec57600080fd5b506101df61077f565b34801561030157600080fd5b506101b2610793565b34801561031657600080fd5b506101856107a2565b34801561032b57600080fd5b506101df61033a366004611526565b6107b1565b34801561034b57600080fd5b506101fe6107c3565b34801561036057600080fd5b506101df61036f366004611451565b6107c8565b34801561038057600080fd5b5061018561038f3660046115c1565b610807565b3480156103a057600080fd5b5061015a6103af3660046113e4565b61086e565b3480156103c057600080fd5b506101df6103cf3660046113ca565b61089c565b60006001600160e01b0319821663780e9d6360e01b14806103f957506103f9826108d6565b90505b919050565b60606000805461041090611bad565b80601f016020809104026020016040519081016040528092919081815260200182805461043c90611bad565b80156104895780601f1061045e57610100808354040283529160200191610489565b820191906000526020600020905b81548152906001019060200180831161046c57829003601f168201915b5050505050905090565b600061049e82610916565b506000908152600460205260409020546001600160a01b031690565b60006104c582610707565b9050806001600160a01b0316836001600160a01b031614156105025760405162461bcd60e51b81526004016104f990611a22565b60405180910390fd5b806001600160a01b031661051461093b565b6001600160a01b031614806105305750610530816103af61093b565b61054c5760405162461bcd60e51b81526004016104f990611a63565b610556838361093f565b505050565b600a600b541061057d5760405162461bcd60e51b81526004016104f99061197f565b662386f26fc1000034146105a35760405162461bcd60e51b81526004016104f9906118ca565b6105af33600b546109ad565b600b80549060006105bf83611be8565b9190505550565b60085490565b6105dd6105d761093b565b826109c7565b6105f95760405162461bcd60e51b81526004016104f9906116a3565b610556838383610a26565b600061060f8361073b565b821061062d5760405162461bcd60e51b81526004016104f9906116f0565b506001600160a01b03919091166000908152600660209081526040808320938352929052205490565b61065e610b63565b6040514790339082156108fc029083906000818181858888f1935050505015801561068d573d6000803e3d6000fd5b5050565b610556838383604051806020016040528060008152506107c8565b60006106b66105c6565b82106106d45760405162461bcd60e51b81526004016104f990611ac0565b600882815481106106f557634e487b7160e01b600052603260045260246000fd5b90600052602060002001549050919050565b60008061071383610ba2565b90506001600160a01b0381166103f95760405162461bcd60e51b81526004016104f9906119eb565b60006001600160a01b0382166107635760405162461bcd60e51b81526004016104f990611901565b506001600160a01b031660009081526003602052604090205490565b610787610b63565b6107916000610bbd565b565b600a546001600160a01b031690565b60606001805461041090611bad565b61068d6107bc61093b565b8383610c0f565b600a81565b6107d96107d361093b565b836109c7565b6107f55760405162461bcd60e51b81526004016104f9906116a3565b61080184848484610cb2565b50505050565b606061081282610916565b600061081c610ce5565b9050600081511161083c5760405180602001604052806000815250610867565b8061084684610cf7565b604051602001610857929190611605565b6040516020818303038152906040525b9392505050565b6001600160a01b03918216600090815260056020908152604080832093909416825291909152205460ff1690565b6108a4610b63565b6001600160a01b0381166108ca5760405162461bcd60e51b81526004016104f99061178d565b6108d381610bbd565b50565b60006001600160e01b031982166380ac58cd60e01b148061090757506001600160e01b03198216635b5e139f60e01b145b806103f957506103f982610da2565b61091f81610dbb565b6108d35760405162461bcd60e51b81526004016104f9906119eb565b3390565b600081815260046020526040902080546001600160a01b0319166001600160a01b038416908117909155819061097482610707565b6001600160a01b03167f8c5be1e5ebec7d5bd14f71427d1e84f3dd0314c0f7b2291e5b200ac8c7c3b92560405160405180910390a45050565b61068d828260405180602001604052806000815250610dd8565b6000806109d383610707565b9050806001600160a01b0316846001600160a01b031614806109fa57506109fa818561086e565b80610a1e5750836001600160a01b0316610a1384610493565b6001600160a01b0316145b949350505050565b826001600160a01b0316610a3982610707565b6001600160a01b031614610a5f5760405162461bcd60e51b81526004016104f9906117d3565b6001600160a01b038216610a855760405162461bcd60e51b81526004016104f99061184f565b610a928383836001610e0b565b826001600160a01b0316610aa582610707565b6001600160a01b031614610acb5760405162461bcd60e51b81526004016104f9906117d3565b600081815260046020908152604080832080546001600160a01b03199081169091556001600160a01b0387811680865260038552838620805460001901905590871680865283862080546001019055868652600290945282852080549092168417909155905184937fddf252ad1be2c89b69c2b068fc378daa952ba7f163c4a11628f55a4df523b3ef91a46105568383836001610801565b610b6b61093b565b6001600160a01b0316610b7c610793565b6001600160a01b0316146107915760405162461bcd60e51b81526004016104f9906119b6565b6000908152600260205260409020546001600160a01b031690565b600a80546001600160a01b038381166001600160a01b0319831681179093556040519116919082907f8be0079c531659141344cd1fd0a4f28419497f9722a3daafe3b4186f6b6457e090600090a35050565b816001600160a01b0316836001600160a01b03161415610c415760405162461bcd60e51b81526004016104f990611893565b6001600160a01b0383811660008181526005602090815260408083209487168084529490915290819020805460ff1916851515179055517f17307eab39ab6107e8899845ad3d59bd9653f200f220920489ca2b5937696c3190610ca5908590611685565b60405180910390a3505050565b610cbd848484610a26565b610cc984848484610ebe565b6108015760405162461bcd60e51b81526004016104f99061173b565b60408051602081019091526000815290565b60606000610d0483610fd9565b600101905060008167ffffffffffffffff811115610d3257634e487b7160e01b600052604160045260246000fd5b6040519080825280601f01601f191660200182016040528015610d5c576020820181803683370190505b5090508181016020015b600019016f181899199a1a9b1b9c1cb0b131b232b360811b600a86061a8153600a8504945084610d9557610d9a565b610d66565b509392505050565b6001600160e01b031981166301ffc9a760e01b14919050565b600080610dc783610ba2565b6001600160a01b0316141592915050565b610de283836110b1565b610def6000848484610ebe565b6105565760405162461bcd60e51b81526004016104f99061173b565b610e1784848484610801565b6001811115610e385760405162461bcd60e51b81526004016104f990611b0c565b816001600160a01b038516610e5557610e50816111a6565b610e78565b836001600160a01b0316856001600160a01b031614610e7857610e7885826111ea565b6001600160a01b038416610e9457610e8f81611287565b610eb7565b846001600160a01b0316846001600160a01b031614610eb757610eb78482611360565b5050505050565b6000610ed2846001600160a01b03166113a4565b15610fce57836001600160a01b031663150b7a02610eee61093b565b8786866040518563ffffffff1660e01b8152600401610f109493929190611648565b602060405180830381600087803b158015610f2a57600080fd5b505af1925050508015610f5a575060408051601f3d908101601f19168201909252610f57918101906115a5565b60015b610fb4573d808015610f88576040519150601f19603f3d011682016040523d82523d6000602084013e610f8d565b606091505b508051610fac5760405162461bcd60e51b81526004016104f99061173b565b805181602001fd5b6001600160e01b031916630a85bd0160e11b149050610a1e565b506001949350505050565b60008072184f03e93ff9f4daa797ed6e38ed64bf6a1f0160401b83106110185772184f03e93ff9f4daa797ed6e38ed64bf6a1f0160401b830492506040015b6d04ee2d6d415b85acef81000000008310611044576d04ee2d6d415b85acef8100000000830492506020015b662386f26fc10000831061106257662386f26fc10000830492506010015b6305f5e100831061107a576305f5e100830492506008015b612710831061108e57612710830492506004015b606483106110a0576064830492506002015b600a83106103f95760010192915050565b6001600160a01b0382166110d75760405162461bcd60e51b81526004016104f99061194a565b6110e081610dbb565b156110fd5760405162461bcd60e51b81526004016104f990611818565b61110b600083836001610e0b565b61111481610dbb565b156111315760405162461bcd60e51b81526004016104f990611818565b6001600160a01b038216600081815260036020908152604080832080546001019055848352600290915280822080546001600160a01b0319168417905551839291907fddf252ad1be2c89b69c2b068fc378daa952ba7f163c4a11628f55a4df523b3ef908290a461068d600083836001610801565b600880546000838152600960205260408120829055600182018355919091527ff3f7a9fe364faab93b216da50a3214154f22a0a2b415b23a84c8169e8b636ee30155565b600060016111f78461073b565b6112019190611b6a565b600083815260076020526040902054909150808214611254576001600160a01b03841660009081526006602090815260408083208584528252808320548484528184208190558352600790915290208190555b5060009182526007602090815260408084208490556001600160a01b039094168352600681528383209183525290812055565b60085460009061129990600190611b6a565b600083815260096020526040812054600880549394509092849081106112cf57634e487b7160e01b600052603260045260246000fd5b9060005260206000200154905080600883815481106112fe57634e487b7160e01b600052603260045260246000fd5b600091825260208083209091019290925582815260099091526040808220849055858252812055600880548061134457634e487b7160e01b600052603160045260246000fd5b6001900381819060005260206000200160009055905550505050565b600061136b8361073b565b6001600160a01b039093166000908152600660209081526040808320868452825280832085905593825260079052919091209190915550565b6001600160a01b03163b151590565b80356001600160a01b03811681146103fc57600080fd5b6000602082840312156113db578081fd5b610867826113b3565b600080604083850312156113f6578081fd5b6113ff836113b3565b915061140d602084016113b3565b90509250929050565b60008060006060848603121561142a578081fd5b611433846113b3565b9250611441602085016113b3565b9150604084013590509250925092565b60008060008060808587031215611466578081fd5b61146f856113b3565b935061147d602086016113b3565b925060408501359150606085013567ffffffffffffffff808211156114a0578283fd5b818701915087601f8301126114b3578283fd5b8135818111156114c5576114c5611c19565b604051601f8201601f19908116603f011681019083821181831017156114ed576114ed611c19565b816040528281528a6020848701011115611505578586fd5b82602086016020830137918201602001949094529598949750929550505050565b60008060408385031215611538578182fd5b611541836113b3565b915060208301358015158114611555578182fd5b809150509250929050565b60008060408385031215611572578182fd5b61157b836113b3565b946020939093013593505050565b60006020828403121561159a578081fd5b813561086781611c2f565b6000602082840312156115b6578081fd5b815161086781611c2f565b6000602082840312156115d2578081fd5b5035919050565b600081518084526115f1816020860160208601611b81565b601f01601f19169290920160200192915050565b60008351611617818460208801611b81565b83519083019061162b818360208801611b81565b01949350505050565b6001600160a01b0391909116815260200190565b6001600160a01b038581168252841660208201526040810183905260806060820181905260009061167b908301846115d9565b9695505050505050565b901515815260200190565b60006020825261086760208301846115d9565b6020808252602d908201527f4552433732313a2063616c6c6572206973206e6f7420746f6b656e206f776e6560408201526c1c881bdc88185c1c1c9bdd9959609a1b606082015260800190565b6020808252602b908201527f455243373231456e756d657261626c653a206f776e657220696e646578206f7560408201526a74206f6620626f756e647360a81b606082015260800190565b60208082526032908201527f4552433732313a207472616e7366657220746f206e6f6e20455243373231526560408201527131b2b4bb32b91034b6b83632b6b2b73a32b960711b606082015260800190565b60208082526026908201527f4f776e61626c653a206e6577206f776e657220697320746865207a65726f206160408201526564647265737360d01b606082015260800190565b60208082526025908201527f4552433732313a207472616e736665722066726f6d20696e636f72726563742060408201526437bbb732b960d91b606082015260800190565b6020808252601c908201527f4552433732313a20746f6b656e20616c7265616479206d696e74656400000000604082015260600190565b60208082526024908201527f4552433732313a207472616e7366657220746f20746865207a65726f206164646040820152637265737360e01b606082015260800190565b60208082526019908201527f4552433732313a20617070726f766520746f2063616c6c657200000000000000604082015260600190565b60208082526018908201527f496e636f7272656374207061796d656e7420616d6f756e740000000000000000604082015260600190565b60208082526029908201527f4552433732313a2061646472657373207a65726f206973206e6f7420612076616040820152683634b21037bbb732b960b91b606082015260800190565b6020808252818101527f4552433732313a206d696e7420746f20746865207a65726f2061646472657373604082015260600190565b60208082526019908201527f416c6c204e4654732068617665206265656e206d696e74656400000000000000604082015260600190565b6020808252818101527f4f776e61626c653a2063616c6c6572206973206e6f7420746865206f776e6572604082015260600190565b60208082526018908201527f4552433732313a20696e76616c696420746f6b656e2049440000000000000000604082015260600190565b60208082526021908201527f4552433732313a20617070726f76616c20746f2063757272656e74206f776e656040820152603960f91b606082015260800190565b6020808252603d908201527f4552433732313a20617070726f76652063616c6c6572206973206e6f7420746f60408201527f6b656e206f776e6572206f7220617070726f76656420666f7220616c6c000000606082015260800190565b6020808252602c908201527f455243373231456e756d657261626c653a20676c6f62616c20696e646578206f60408201526b7574206f6620626f756e647360a01b606082015260800190565b60208082526035908201527f455243373231456e756d657261626c653a20636f6e7365637574697665207472604082015274185b9cd9995c9cc81b9bdd081cdd5c1c1bdc9d1959605a1b606082015260800190565b90815260200190565b600082821015611b7c57611b7c611c03565b500390565b60005b83811015611b9c578181015183820152602001611b84565b838111156108015750506000910152565b600281046001821680611bc157607f821691505b60208210811415611be257634e487b7160e01b600052602260045260246000fd5b50919050565b6000600019821415611bfc57611bfc611c03565b5060010190565b634e487b7160e01b600052601160045260246000fd5b634e487b7160e01b600052604160045260246000fd5b6001600160e01b0319811681146108d357600080fdfea2646970667358221220bccdea58c7d808b20b597d6581ccb65dcacda64cdaad99417d917e138618dd8664736f6c63430008010033",
  "immutableReferences": {},
  "source": "pragma solidity ^0.8.0;\n\nimport \"@openzeppelin/contracts/token/ERC721/extensions/ERC721Enumerable.sol\";\nimport \"@openzeppelin/contracts/access/Ownable.sol\";\n\ncontract MintableNFTCollection is ERC721Enumerable, Ownable {\n    uint256 public constant MAX_NFT_SUPPLY = 10;\n    uint256 private _currentTokenId = 0;\n    uint256 private constant MINT_PRICE = 0.01 ether;\n\n    constructor() ERC721(\"Mintable NFT Collection\", \"MNFTC\") {}\n\n    function mintNFT() public payable {\n        require(_currentTokenId < MAX_NFT_SUPPLY, \"All NFTs have been minted\");\n        require(msg.value == MINT_PRICE, \"Incorrect payment amount\");\n\n        _safeMint(msg.sender, _currentTokenId);\n        _currentTokenId++;\n    }\n\n    function withdraw() public onlyOwner {\n        uint256 balance = address(this).balance;\n        payable(msg.sender).transfer(balance);\n    }\n}\n",
  "sourcePath": "/Users/gideoncrawley/Projects/my_nft_generator/contracts/MintableNFTCollection.sol",
  "compiler": {
    "name": "solc",
    "version": "0.8.1+commit.df193b15.Emscripten.clang"
  },
  "schemaVersion": "3.4.13",
  "updatedAt": "2023-05-09T17:52:01.345Z",
  "networkType": "ethereum",
  "devdoc": {
    "kind": "dev",
    "methods": {
      "approve(address,uint256)": {
        "details": "See {IERC721-approve}."
      },
      "balanceOf(address)": {
        "details": "See {IERC721-balanceOf}."
      },
      "getApproved(uint256)": {
        "details": "See {IERC721-getApproved}."
      },
      "isApprovedForAll(address,address)": {
        "details": "See {IERC721-isApprovedForAll}."
      },
      "name()": {
        "details": "See {IERC721Metadata-name}."
      },
      "owner()": {
        "details": "Returns the address of the current owner."
      },
      "ownerOf(uint256)": {
        "details": "See {IERC721-ownerOf}."
      },
      "renounceOwnership()": {
        "details": "Leaves the contract without owner. It will not be possible to call `onlyOwner` functions anymore. Can only be called by the current owner. NOTE: Renouncing ownership will leave the contract without an owner, thereby removing any functionality that is only available to the owner."
      },
      "safeTransferFrom(address,address,uint256)": {
        "details": "See {IERC721-safeTransferFrom}."
      },
      "safeTransferFrom(address,address,uint256,bytes)": {
        "details": "See {IERC721-safeTransferFrom}."
      },
      "setApprovalForAll(address,bool)": {
        "details": "See {IERC721-setApprovalForAll}."
      },
      "supportsInterface(bytes4)": {
        "details": "See {IERC165-supportsInterface}."
      },
      "symbol()": {
        "details": "See {IERC721Metadata-symbol}."
      },
      "tokenByIndex(uint256)": {
        "details": "See {IERC721Enumerable-tokenByIndex}."
      },
      "tokenOfOwnerByIndex(address,uint256)": {
        "details": "See {IERC721Enumerable-tokenOfOwnerByIndex}."
      },
      "tokenURI(uint256)": {
        "details": "See {IERC721Metadata-tokenURI}."
      },
      "totalSupply()": {
        "details": "See {IERC721Enumerable-totalSupply}."
      },
      "transferFrom(address,address,uint256)": {
        "details": "See {IERC721-transferFrom}."
      },
      "transferOwnership(address)": {
        "details": "Transfers ownership of the contract to a new account (`newOwner`). Can only be called by the current owner."
      }
    },
    "version": 1
  },
  "userdoc": {
    "kind": "user",
    "methods": {},
    "version": 1
  }
}